:020000040000FA
:060000000217CC020A7B8E
:03001300020B37A6
:03002B0002155D5E
:03003300020CC5F7
:03003B00020B8C29
:030053000209B0EF
:03005B000212CFBF
:030063000212F096
:03006B00020C6B19
:03007B00020C9CD8
:10008300020A0F010020FD00020194050000000197
:100093004A1D5C1D0000621D681D000000006E1DEE
:1000A300861D8C1D921D000000000000000006004C
:1000B30004140004FF0801FF0D0106FFFFFFFFFF0B
:1000C300FFFF0101010400E31A000000E803000040
:1000D300FFFF5B1BE803000064006400B801A0BBE2
:1000E3000D00A0BB0D00020200F8FF0705021E046D
:1000F30001051E02051E020A0A0101080801031078
:100103002702803E0102FEFFE8030A050001FFFF0C
:10011300010A1401E0C503423F1A51123FF304B52B
:100123003F0000803E010105030101FF0F10FEFFA8
:10013300933F000000002B3F00000000FF00000081
:10014300FF00C082C083E9FA5407F8748D28F58252
:10015300E43483F583E0F879006022EAC4540F5451
:1001630003600814600914600D8012E5808002E5C5
:10017300905870078007E5A0586002790102026E6B
:10018300C082C08312027340047800800312032BE1
:10019300E8F4FCEB600814601214601C802BEA6026
:1001A30005E842808023EC5280801EEA6005E84225
:1001B300908016EC52908011E8C39420500BEA60B3
:1001C30005E842A08003EC52A002026EC082C08305
:1001D30012027340047800800312032BE8F4FCE856
:1001E300700302026EEB600814602C146050807B75
:1001F300EC52F374016A601274026A601574046A43
:100203007003E8428FE842FD806153F7DFEC528FC1
:1002130080F343F72080F6EC52F474016A601274A1
:10022300026A601574046A7003E842F6E842FE80CD
:100233003A53F7BFEC52F680F343F74080F6E8C336
:1002430094205027EC52F574016A601274026A60BC
:100253001574046A7003E842F7E842FF800D53F710
:100263007FEC52F780F343F78080F6D083D082226D
:10027300E9C4540F5403FB743F59C394302274F8F8
:10028300120EC1E9C4540F5403FE743F59C3943092
:1002930040047800800312032BE8F4FBE86077EE58
:1002A300600814602B14604E806CEB52F352FD74A3
:1002B300016A600F74026A600F74046A7058E8423E
:1002C3008F805353F7DF800343F720EB528F804631
:1002D300EB52F452FE74016A600F74026A600F7489
:1002E300046A7032E842F6802D53F7BF800343F768
:1002F30040EB52F68020E8C39420501AEB44E0FB15
:1003030052F552FF74016A601274026A6015740434
:100313006A7003E842F77F0102125053F77FEB52F2
:10032300F780F343F78080F6E95407FC748D2CF5CE
:1003330082E43483F583E0F822C082C0831202731F
:1003430040047800800312032BE8F4FCE86038EBE8
:10035300600814601214601C802DEA6005E842FDF9
:100363008025EC52FD8020EA6005E842FE8018EC0F
:1003730052FE8013E8C39420500DEA6005E842FF63
:10038300800574E04C52FF02026EC082C0831202E9
:100393007340047800800312032BE8F4FCE8603F09
:1003A300EB60081460151460228034EA6005E842AB
:1003B300808003EC5280E842FD8024EA6005E84235
:1003C300908003EC5290E842FE8014E8C3942050DE
:1003D3000EEA6005E842A08003EC52A0E842FF0267
:1003E300026E743F59C394305042E9C4540F54030E
:1003F3006007146013146020227801E8F4FBEA60BC
:100403002414601814601922740F59C394045004FF
:10041300780280E7780480E3780880DFE8428C2262
:10042300E58C586004EB528C22E8428C221217DCD4
:10043300601D1217EB7005191919801A12166D70C9
:100443001F121645C37003E66733191919400718BD
:1004530018182208080874FFF618F618F618F6227A
:100463001216456017121891702192F012189A70A3
:1004730019501720F014080808090909E7F6181994
:10048300E7F61819E7F61819E7F62212189A60E644
:10049300E869701F0808E62480F608E436F6185465
:1004A3007FB47F0CE654806007F6E418F618F62252
:1004B300181822E9C6CC08C6CD08C6CE08C6CFC0D8
:1004C300E0E8C0E0EAC0E0EBC0E009E9F809E7FAD8
:1004D30009E7FBE6F918E6F8C3EC98ED99EE9AEB19
:1004E300C2E7F5F0EFC2E795F0500E600CEBCFFBDF
:1004F300EACEFAE9CDF9E8CCF8EAA2E7D2E7FAEBDB
:1005030033FB13F5F0EEA2E7D2E7FEEF33FFC5F0BE
:1005130013A2E730E601B313C5F0C3C0E0C0F07F18
:1005230000C39BFB605E9418600F401D14601AD0DB
:10053300E023F9D0E0F80206118AF0E9486003D21B
:10054300F0E4AFF0FAF9F8803BEB30E40D89F0EA20
:100553006003D2F0E4AFF0F9CAF8EB30E30D88F0B2
:10056300EF6002D2F0AFF0E4CAC9F8EB54076014AD
:10057300FBC3EA13FAE913F9E813F8EF135002D2B5
:10058300E0FFDBEDD0E0C0E030E739C3E49FFFF5E7
:10059300F0EC98FC42F0ED99FD42F0EE9AFE42F049
:1005A300D0E0F9D0E0F8E5F0607AE923F9EE20E74E
:1005B30042D8028067C3EF33FFEC33FCED33FDEE2B
:1005C30033FE80EAEC28FCED39FDEE3AFED0E02361
:1005D300F9D0E0F84002801BC3EE13FEED13FDECEF
:1005E30013FCEF135002D2E0FF08B800067F7F74BC
:1005F300FF802EEF3350178CF020F00260100CBCFC
:10060300000C0DBD00080EBE000408E860DFE933EE
:10061300E813FFEE2313FE4F4D4C8008E95480FF8F
:10062300E4FEFDFCEE33EF33F47004FCFD7E80D07A
:10063300E0FBD0E0FAD0E0F8D0E0CFC618CEC61881
:10064300CDC618CCC6F9221217DC7004181818226C
:100653001217EB700D74FFF61819F61819F618191E
:10066300F622E7548066F612189A700F12189170EA
:10067300F014F608F608F608F680D1121891700CFB
:10068300F608F608768008E6447F80EC1216487078
:100693000C12167060BFE65480F6E480BB1216702D
:1006A300700519191980A5E869700C763F187680D2
:1006B30018F618F6E8F922E6CDC0E018ECC0E0E63B
:1006C30033CD33CDD313F6E719FCE7191933CC3304
:1006D300C3947F400ECD9D502408E65480F6E41861
:1006E300F6800FF4043D14501408E6447FF61876A0
:1006F30080E418F618F6D0E0FCD0E0FD22CCD3134A
:10070300CCFD18E4C6CBC0E018E4C6CAC0E00808B4
:10071300ED08C633E613F618E433C675F003C3CA0F
:1007230097CA09CB97CB199C40047D08802EBD0046
:10073300030207F316B6FF050606081618C3CA33E5
:10074300CACB33CB33CA27CA09CB37CB193CC37DBA
:1007530008803E187D0820E75CC633C6CA33CACB7F
:1007630033CB33DDF1D5F0EB30E77BCA97CA09CB46
:10077300974ACB199C406F4B7025E620E021806699
:10078300187D08C3CA97CA09CB97CB199CD3C63324
:10079300C6CA33CACB33CB3350C9DDE7D5F0E1D377
:1007A300E4C636C608C636C608C636C608C636C642
:1007B3001818188031C3CA97CA09CB97CB199CB3B1
:1007C3004097C633C6CA33CACB33CB33DD34D5F0F7
:1007D3002EC6A2E0C640C8CA27CA09CB37194A7039
:1007E300BECB3CB480B90808E63308E633601F1873
:1007F3001818D0E0FAD0E0FBD0E0FCD0E0FD2218DE
:100803007D08CA27CA09CB37CB193CD3808013F69E
:1008130018E4B67F11F618B6FF0EF618C60470D2A8
:100823000808768080CAF618F618F680C5001217F5
:10083300DC604F1217EB6012E7548066F612166DF8
:100843007011121891703B090909F4F618F618F69D
:1008530018F622121645701512189A08080860EA4D
:10086300E6447FF618768018E4F618F62212189AF2
:1008730060161218917012E4F608F608F608E654AA
:1008830080F609090918181822EAC0E0EBC0E0EC69
:10089300C0E0EDC0E0E687F0A4FBACF008E687F02B
:1008A300A42CFCE435F0FA1809E687F0A42C4B607D
:1008B300027401CA35F0FCE433FB09E687F0D2F792
:1008C300A42CCB35F0FC1908E687F0A42BCC35F02B
:1008D300FBE433FD0819E687F0D2E7A42C4ACB35B5
:1008E300F0CD3400FC09E687F0D2E7A42DCC35F037
:1008F300FDE433FA0918E687F0D2F7A42CCD35F0DE
:10090300CA3400FC08E687F0D2E7D2F7A42ACC3534
:10091300F07A7E20E70B0ACB33CBCD33CDCC33CC6F
:1009230033CB3350147004ED30E00ED2F1E4CD3DFF
:10093300CDCC3CCC3B5005DA05C2F1EB547FC6333A
:1009430008E63392F0FBE73309E733C39A502D2BC4
:1009530070190C0D4C4D70151806E608C333700D55
:1009630020F10AA2F013F6E418800B4024E4F630D9
:10097300F002768018F618F618F68024D33B14504C
:100983001074FFA2F013F6187680E418F618F680B8
:100993000FA2F013F618E63303F618ECF618EDF68B
:1009A300D0E0FDD0E0FCD0E0FBD0E0FA22C0E07460
:1009B300F1120F27A2AFE433F509D2AF85A708AF31
:1009C300A1EF5508FE74105E6006121A3275A1EF8E
:1009D30074085E6008121A3875A1F78024EFA2E04C
:1009E30092F0E508A2E082F05017906198E0F89049
:1009F3000504E0C398A2D265D0335002E8F075A194
:100A0300FEE509A2E092AF7F02020F86C0E074F216
:100A1300120F27A2AFE433FED2AF9061A4E0F875C2
:100A23009B00E59158540860087591F7121A80806D
:100A330023E59158541060087591EF121A868014BB
:100A4300E591A2E092F0E8A2E082F05007E0C2E074
:100A5300F0121BD09061A3E0F8E5E9585404600E4E
:100A6300121BA675E9FB906193E0A2E640F2EEA2A9
:100A7300E092AF7F01020F86C0E074F2120F27A24B
:100A8300AFE433FED2AF9061A5E0F8E5BF5854045C
:100A9300600675BFFB121BE880D4C3E498F8E499A1
:100AA300F9120ADE8026C3E49AFAE49BFBE920E705
:100AB300E9120ADEE498F8E499F922C3E498F8E429
:100AC30099F9120ADEE498F8E499F9C3E49AFAE48E
:100AD3009BFB22EB20E7CFE920E7E0B90010BB0046
:100AE30008E88AF084F8AAF022E4FBC8FA22EB7043
:100AF300227B10C833C8C933C9335007C39AC3DB39
:100B0300F280069A50012ADBEAC833F4C8C933F4E9
:100B1300C9FA2275F008E4C833C8C933C933C99A7E
:100B2300C99B5004C92AC93BD5F0ECFBC833F4C8B0
:100B3300E4C9FA22C0E0C0D0E8C0E0E9C0E0C08266
:100B4300C083A8C1E8C0E09004B1E0F8743028F590
:100B530082E43404F583D0E0F09004B0E0F8A3E03D
:100B6300687006E5959004B3F09004B1E004F0C317
:100B730094804002E4F0A374C6F0D083D082D0E026
:100B8300F9D0E0F8D0D0D0E032C0E0C0D0E8C0E087
:100B9300E9C0E0C082C0839004F4E0F8A3E0687089
:100BA30008539AFBA374018022C2E99004F4E0F88D
:100BB300740128F074B428F582E43404F583E0F575
:100BC300C19004F4E0C394404002E4F080AC120C02
:100BD3001C30F039120C618034120C1C20F01430DC
:100BE300E72B74FFFCFBFA747F8022E4FCFBFA74AE
:100BF30080801AB48008BC00F2BB00EF800F50EB7A
:100C0300F9E4C39AFAE49BFBE49CFCE499C6CC1890
:100C1300C6CB18C6CA18C6F922E4C9C608CAC6088C
:100C2300CBC6D3330308CCC63392F0C3947F402E94
:100C330094184019C9B90704CACBCC225025C3095B
:100C4300CA33CACB33CBCC33CC33D9F422F4600DC3
:100C5300C9CCC313CB13CBCA13CAD9F6CC22E4FC39
:100C6300FBFA2214FCFBFA22C0E074F2120F27A253
:100C7300AFE433FED2AF9006ABE05589600FE58950
:100C8300FA7900121EAC9006ABE0F45289C2C5EEAD
:100C9300A2E092AF7F01020F86C0E074F2120F2729
:100CA300A2AFE433FED2AF9006ACE0558A600FE505
:100CB3008AFA7901121EAC9006ACE0F4528AC2EBB8
:100CC30080CDC0E074F2120F27A2AFE433FED2AF9F
:100CD3009006ADE0558B600FE58BFA7902121EACDE
:100CE3009006ADE0F4528BC2E880A4080808EAC07D
:100CF300E0EBC0E086F0E7A4FA180986F0E7A42A3F
:100D0300FA180986F0E7A42AFA180986F0E7A42A54
:100D1300FA1986F0E7A4FBE5F02AFA190886F0E74A
:100D2300A42BFBE5F03AFA190886F0E7A42BFBE5C0
:100D3300F03AFA18180986F0E7A4C5F02BFBE43A59
:100D4300FA1908E7C5F0C6A426F6E5F03BFBE43A3A
:100D5300FA1886F0E7A4F6E5F00826F6E43B08F671
:100D6300E43A08F6D0E0FBD0E0FA22080808E630BF
:100D7300E7111216A9120D86080808C64480C61882
:100D8300181822181818E9799EC608CAC608CBC6CF
:100D930008CCC6C370207996CACBCC7019798ECB98
:100DA300CC70137986CC700EF9802ACA33CACB3340
:100DB300CBCC33CC331930E7F2CCCBCA33501470DD
:100DC30004EA30E00DE4CA3ACACB3BCBCC3CCC506E
:100DD3000209C3E913C6CC182313C6CB18C6CA1815
:100DE300C6F922E4CFC0E0E4CEC0E0E4CDC0E0E445
:100DF300CCC0E075F020E626F608E633F608E633C5
:100E0300F608E633F6181818EC33FCED33FDEE3331
:100E1300FEEF33FFC3EC9709ED9709EE9709EF97C0
:100E2300191919400FFFEC97FC09ED97FD09EE978F
:100E3300FE191906D5F0BFECF709EDF709EEF7092E
:100E4300EFF7191919D0E0FCD0E0FDD0E0FED0E0B7
:100E5300FF222518C582C0E0E51934FFC583C0E031
:100E6300E518C3958224F810AF0885831985821885
:100E73008008858319858218D2AFCEF0A3E520F0D0
:100E8300A37808E608F0A3DEFAEFF0A3E58124FADD
:100E9300F8E608F0A3E608F0A3E608F0A30808E6DE
:100EA30008F0A3E608F0A315811581D0E0FED0E099
:100EB300F8158115811581E8C0E0EEC0E022251800
:100EC300C582C0E0E51934FFC583C0E0E518C395CA
:100ED3008224F910AF0885831985821880088583D9
:100EE30019858218D2AFCEF0A3E520F0A37808E6E7
:100EF30008F0A3DEFAEFF0A3E58124FBF8E608F09F
:100F0300A3E608F0A30808E608F0A3E608F0A31593
:100F1300811581D0E0FED0E0F815811581E8C0E0AD
:100F2300EEC0E022C0D02518C582C0E0E51934FF29
:100F3300C583C0E0E518C3958224F310AF08858309
:100F4300198582188008858319858218D2AFC8F065
:100F5300A3E9F0A3EAF0A3EBF0A37908E709F0A370
:100F6300D8FAECF0A3EDF0A3EEF0A3EFF0A3D0E0FA
:100F7300F0A3D0E0F0A3D0E0F0A3E520F0A3E5F0E8
:100F8300F0A322851983851882E0C0E0A3E0F9A3CA
:100F9300E0FAA3E0FBA37808E0F608A3DFFAE0FC9D
:100FA300A3E0FDA3E0FEA3E0FFA3E0C0E0A3E0C055
:100FB300E0A3E0F5D0A3E0F520A3E0A3F5F010AFA4
:100FC300088583198582188008858319858218D23C
:100FD300AFD082D083D0E0F8D0E0321216AC18182C
:100FE30018120DE612177B1919192212177B1919FA
:100FF30019080808E618181820E7E0120DE612167B
:10100300AC18181822090909E719191920E7DC088F
:101013000808E618181820E703020DE61216AC18A4
:101023001818120DE61216AC18181812177B191996
:10103300192212187CB90003021074E49003D978C2
:1010430051791B8002F0A3D8FCD9FA7A297B1E9030
:10105300008678C079018015E493A3AD82AE838ABC
:10106300828B83F0A3AA82AB838D828E83D8E9D946
:10107300E77582797583C274071214D47582647517
:10108300833974001214D4E47375F0108E1A8F1B15
:1010930085821F85831E851882851983E0CEA3E090
:1010A300CF851F82851E83EBC9EAC8EDCBECCAC38B
:1010B300E833C8E933C9EA33CAEB33CBC3EA9EF555
:1010C3001DEB9FF51CB35004AB1CAA1DEC33CCEDF8
:1010D30033CDD5F0DAAE1AAF1B221217DC601C1227
:1010E30017EB601712189A70071218917001D32228
:1010F300C0D01218917006D0D0B322C32233D0D0FF
:10110300501430E0F6C3E7960809E7960809E79616
:101113000809E796B32220E0D5E6970809E6970881
:1011230009E6970809E697B3221217DC601B12172A
:10113300EB601612189A7007121891600CB322C054
:10114300D01218917005D0D022C32233D0D05013BF
:1011530030E0EBC3E7960809E7960809E796080924
:10116300E7962220E0E4E6970809E6970809E69760
:101173000809E69722D083D082ECC0E0EDC0E0E41A
:1011830093A3FCE493A3FDED4C600D121290EC24A9
:10119300FFFCED34FFFD80EFE493A3FCE493A3FD98
:1011A300ED4C600D121397EC24FFFCED34FFFD8032
:1011B300EFD0E0FDD0E0FCE493A3C0E0E493C0E013
:1011C30022D083D082E9C0E0E493A3C386F0C5F0C4
:1011D30095F0F908E493A386F0C5F095F0700BE45D
:1011E30093A3C3994005E9048002A3E475F002A424
:1011F3002582F582E5F03583F583D0E0F9E493A306
:10120300C0E0E493C0E022851983851882E0A3FE41
:10121300E0A3F5207808E0A3F608DFFAE0A3FFE0F7
:10122300A3C0E0E0A3C0E0E0A3C0E0E0A3C0E0E02F
:10123300A3C0E010AF0885821885831980088582D2
:1012430018858319D2AFD083D0820214DA8519832B
:10125300851882E0A3FEE0A3F5207808E0A3F60852
:10126300DFFAE0A3FFE0A3C0E0E0A3C0E0E0A3C097
:10127300E0E0A3C0E010AF088582188583198008D9
:10128300858218858319D2AFD083D08222C0E0C370
:10129300E49396087401939618400FE493667008DC
:1012A30008740193661870007019A3A3C3E493969E
:1012B300087401939618A3A3400DD0E0D0E0D0E0CA
:1012C3000211B4A3A3A3A3A3A3D0E022C0E074F2AA
:1012D300120F27C2D9901E63E0C39400A2D265D037
:1012E300334005E0F91222847F01020F86C0E074C7
:1012F300F2120F27C2DC901E65E0F9C39400A2D25C
:1013030065D033400312228480DE740480047402A7
:101313008000CCC0E0EDC0E0E518C39CCCAD195013
:10132300011D10AF068C188D1980068C188D19D2EB
:10133300AF121456D0E0FDD0E0FC2274028000CC42
:10134300C0E0EDC0E0E518C39CCCAD1950011D1001
:10135300AF068C188D1980068C188D19D2AF121414
:1013630012D0E0FDD0E0FC221217DC60251217EB4F
:10137300602012189A7003021891080808E7667033
:10138300101819E766700A1819E76670041819E748
:101393006622F422C0E0C0F088F0E4936670080887
:1013A30074019366187000A8F0A3A3700BD0F0D05B
:1013B300E0D0E0D0E00211B4A3A3D0F0D0E022D07B
:1013C30083D082CCC0E0E493A36006121477147038
:1013D300FAE493A360061215DA1470FAD0E0FCE481
:1013E30093A3C0E0E493C0E022C008C3E096F508ED
:1013F30008A3E096420808A3E096420808A3E096F3
:101403004208A2D265D033E5087001D3D00822CABE
:10141300C0E0E493A3C582CCC582C583CDC583F068
:10142300A3C582CCC582C583CDC583DAE5D0E0CA26
:1014330022A2E792D65002F40430F70663F0FF05C8
:10144300F0B3400384800384F40430D60563F0FFD3
:1014530005F022CAC0E0E0A3C582CCC582C583CD16
:10146300C583F0A3C582CCC582C583CDC583DAE627
:10147300D0E0CA22C0E0E493A3D39C5010E493A32A
:10148300C39C400AD0E0D0E0D0E00213DFA3A3A3C3
:10149300D0E0227009080808226016181818C6C37D
:1014A30033C608C633C608C633C608C633C6D5E036
:1014B300EA22C008C3E096F50808A3E096420808AC
:1014C300A3E096420808A3E09645087001D3D0082C
:1014D30022C09FF59FE473D09F22D083D082C09F08
:1014E300E493C0E0740193C0E0740293F59F227407
:1014F30004800A74038006740280027401C0E0F45D
:1015030004121528D0E01218272200C0D025181085
:10151300AF08F518500C05198008F5185002051985
:10152300D2AFD0D0222518F58210AF08F518400CA1
:1015330015198008F51840021519D2AF85198322B1
:10154300BB0102E722C082C08389828A83BB000376
:10155300E08002E493D083D08222C0E0C0D0E8C010
:10156300E0A8A8D2AFC2C7E8A2E792AFD0E0F8D014
:10157300D0D0E0326017080808C6A2E713C618C621
:1015830013C618C613C618C613C6D5E0E9226016DB
:10159300080808C6C313C618C613C618C613C61848
:1015A300C613C6D5E0EA22C3E0C696F608A3E0C692
:1015B30096F608A3E0C696F608A3E0C696F622259B
:1015C30018F8E43519F9222518FAE43519FB222510
:1015D30018FCE43519FD22C0E0E493A36C7009D034
:1015E300E0D0E0D0E00213DFA3A3D0E0222518105F
:1015F300AF08F518400C15198008F51840021519A5
:10160300D2AF22E76670100809E766700A0809E797
:101613006670040809E76622C3E09608A3E096080B
:10162300A3E09608A3E096A2D265D03322E06670C9
:101633001008A3E066700A08A3E066700408A3E03C
:101643006622191919E70947097009E7270970057F
:10165300E733F4220922C3E096F008A3E096F008EA
:10166300A3E096F008A3E096F022181818E60846BF
:10167300087009E626087005E633F4220822C3E45D
:1016830093960874019396087402939608740393CF
:101693009622C3E697F60809E697F60809E697F651
:1016A3000809E697F622181818E4C396F608E49694
:1016B300F608E496F608E496F622E493F608740135
:1016C30093F608740293F608740393F622E667F61A
:1016D3000809E667F60809E667F60809E667F622E9
:1016E300E056F608A3E056F608A3E056F608A3E092
:1016F30056F622E657F60809E657F60809E657F6BE
:101703000809E657F622E627F60809E637F6080938
:10171300E637F60809E637F622E026F608A3E036B0
:10172300F608A3E036F608A3E036F622E026F00832
:10173300A3E036F008A3E036F008A3E036F022E693
:1017430047F60809E647F60809E647F60809E647B3
:10175300F622700422600D18C6C333C608C633C60A
:10176300D5E0F41822E056F008A3E056F008A3E011
:1017730056F008A3E056F022E4C397F709E497F77D
:1017830009E497F709E497F722600D08C6A2E71367
:10179300C618C613C6D5E0F322C6F4C608C6F4C6F7
:1017A30008C6F4C608C6F4C622C3E09608A3E096AA
:1017B30008A3E09608A3E09622C3E7960809E796F4
:1017C3000809E7960809E7962275D00075813F75E9
:1017D30018D975190300021035E6084608C31346E5
:1017E30008336002E633F422E7094709C3134709C4
:1017F300336002E733F422600C08C6C313C618C66D
:1018030013C6D5E0F422E6F008A3E6F008A3E6F059
:1018130008A3E6F022E0F608A3E0F608A3E0F60842
:10182300A3E0F622CAC0E0E6F0A308DAFAD0E0FAB1
:1018330022E0FCA3E0FDA3E0FEA3E0FF22EAF0A385
:10184300EBF0A3ECF0A3EDF022E0FAA3E0FBA3E0BE
:10185300FCA3E0FD22E8F0A3E9F0A3EAF0A3EBF098
:1018630022ECF0A3EDF0A3EEF0A3EFF022E0F8A357
:10187300E0F9A3E0FAA3E0FB22E5C754F84401F53D
:10188300C77901222518F582E43519F58322E72764
:1018930019471947194722E62618461846184622BB
:1018A300C2AF75D69F020000221214DD39FE061264
:1018B30014DD95FE061214DDEDFE061214DD74FF31
:1018C300061214DDB0FF061214DD5FDE071214DD0D
:1018D3006FDE071214DDAA99071214DD0D9A0712A1
:1018E30014DD5C9A071214DD899A071214DDDF9A5E
:1018F300071214DDC1FF051214DD757D001214DD1E
:10190300BF7D001214DD557E001214DDDB7E001254
:1019130014DD0C7F001214DD247F001214DD987F88
:10192300001214DDAE7F001214DDC17F001214DD3E
:10193300CB7F001214DD0080061214DD5A850612D7
:1019430014DD8C85061214DDB885061214DD458678
:10195300061214DD2C88061214DD3EF4031214DD86
:10196300A1F4031214DD5EF5031214DD19F603125C
:1019730014DD55F7031214DD7CF8031214DDB1F9FD
:10198300031214DDB9FB031214DDECFB031214DDA7
:1019930052FC031214DD84FC031214DD04FE031253
:1019A30014DD86FE031214DD9AFE031214DD10FF0C
:1019B300031214DD44F7021214DDBBF9021214DD25
:1019C3001CFB021214DD23FD021214DD83EA06124E
:1019D30014DDAFEA061214DD20ED061214DD60ED0E
:1019E300061214DDA0ED061214DDB4ED061214DDAB
:1019F300CDED061214DDBEEE061214DD63EF061202
:101A030014DD77EF061214DDCACD071214DDEECD17
:101A1300071214DD07CE071214DD39CE071214DDC9
:101A230069CE071214DD96CE071214DDF8CE071225
:101A330014DD07CF071214DD11CF071214DD1ECFFB
:101A4300071214DD1CB7071214DD3CB7071214DDAF
:101A53007BB7071214DD96B7071214DDB5B707126B
:101A630014DD1BB8071214DD24B8071214DD81B886
:101A7300071214DDA5B8071214DD66B9071214DDC9
:101A830073B9071214DD84B9071214DD32DD0712AE
:101A930014DD4ADD071214DD76DD071214DD428002
:101AA300071214DD9C81071214DDAA81071214DDCD
:101AB300BD81071214DDD281071214DDE7810712FD
:101AC30014DDFA81071214DD6E82071214DDD3824E
:101AD300071214DD7583071214DD3984071214DD30
:101AE3004984071214DD5884071214DD31FF0312F1
:101AF30014DD55FF031214DD7DFF031214DDA5FF72
:101B0300031214DD5BBE071214DD82BE071214DD5F
:101B1300A0BE071214DD13BF071214DD49B4071268
:101B230014DD62B4071214DD6EB4071214DD82B43F
:101B3300071214DDA0B4071214DDAAB4071214DDD2
:101B4300B4B4071214DDC7B4071214DD4DB5071280
:101B530014DDC2B5071214DDF1B5071214DD3FB66B
:101B6300071214DD8EB6071214DDA9B6071214DDB1
:101B7300B3B6071214DDC4B6071214DD07B7071294
:101B830014DDE7DC071214DD7993061214DDA39349
:101B9300061214DDC093061214DDD393061214DD6E
:101BA300E993061214DD4794061214DD7F9406129E
:101BB30014DD7398061214DDB899061214DDEB993F
:101BC300061214DD4E9A061214DDAE9B061214DDC6
:101BD300D69B061214DDEB9B061214DDFB9B06124B
:101BE30014DD3F9C061214DD9A9C061214DDAA9C98
:101BF300061214DD64D4071214DD7ED4071214DD3B
:101C0300A6D4071214DDBFD4071214DDE3D40712E0
:101C130014DD01D5071214DD18D5071214DD46D5DE
:101C2300071214DD61D5071214DDBDDD071214DDC3
:101C3300F7A4071214DD07A5071214DD0CA607127B
:101C430014DD3EA6071214DD64A6071214DD87A671
:101C5300071214DD9EA6071214DDD8A6071214DDA1
:101C63003DA7071214DD7FA7071214DDBEA70712D5
:101C730014DDEFA7071214DD26A8071214DD18BD23
:101C8300061214DDEEBD061214DD19BE061214DDB4
:101C930036BE061214DD31BF061214DD73BF061201
:101CA30014DDE1BF061214DD33C0061214DD9BC040
:101CB300061214DD7DC1061214DD56C2061214DDB0
:101CC3009F9D071214DDF49D071214DD469E071233
:101CD30014DD879E071214DD9A9E071214DDD29E2F
:101CE300071214DD399F071214DDCF9F071214DD8D
:101CF300A0A5061214DDCBA5061214DD96A60612C6
:101D030014DDDDA6061214DD6EA7061214DDE7AAA4
:101D1300061214DD5AAC061214DDF5AD041214DDFF
:101D230035AE041214DD34B0041214DD5AB00412BB
:101D330014DD55B3041214DD87B4041214DD49B85D
:101D4300041214DDB3B8041214DD49B9041214DD0E
:101D53009CB9041214DD04BA041214DD50BA04123F
:101D630014DD82BA041214DD85BA041214DD95BAA7
:101D7300041214DDA7BA041214DDECBA041214DD44
:101D8300A9BC041214DD16BD041214DD61BD0412D6
:101D930014DDFDBD041214DD89BE041214DD72C00E
:101DA300041214DD17C2041214DDB2C2041214DDCE
:101DB300C5C4041214DDA3C5041214DD58C70412EC
:101DC30014DD28CF071214DD42CF071214DD84CFB0
:101DD300071214DDB7CF071214DDD1CF071214DDBC
:101DE300EACF071214DD1DD0071214DD44D0071209
:101DF30014DD33CF061214DD6ACF061214DDBECF15
:101E0300061214DD8ED0061214DDC4D0061214DDC2
:101E1300F1D0061214DD43D1061214DD61D106128E
:101E230014DD85D1061214DD07D2061214DD91D21A
:101E3300061214DDC2D2061214DD08D3061214DD15
:101E430026D3061214DD54D3061214DD78D30612FA
:101E530014DDAED3061214DD0DD4061214DD2FD417
:101E6300061214DD8ED4061214DDC7D4061214DD57
:101E7300D5D4061214DDDA9C061214DD149D061265
:101E830014DD539E061214DD839F061214DD7AA51A
:101E9300061214DD59C3061214DD42C4061214DD02
:101EA30083C4061214DD32C5061214DDBCD7071233
:101EB30014DD2DD8071214DD90D8071214DDC48960
:101EC300061214DDE38A061214DDF18B061214DD0B
:101ED300388D061214DD908D061214DDD58D061291
:101EE30014DDE38D061214DD138E061214DDAA8EA3
:101EF300061214DD478F061214DD5390061214DD0B
:101F0300EB91061214DD6E93061214DD7EA8071200
:101F130014DDD9A8071214DD12A9071214DDFAAAD9
:101F2300071214DD4AF9061214DD8FF9061214DDC7
:101F3300C5F9061214DD7CFA061214DD1DFC061227
:101F430014DD8AFC061214DDE0FD061214DD41B334
:101F5300051214DD45B4051214DDBBB4051214DDFE
:101F6300A7B5051214DDF3B5051214DD5BB905122F
:101F730014DDA3B9051214DD73BA051214DDBDBA5D
:101F8300051214DD26BB051214DD6BBB051214DD2F
:101F9300BDBB051214DD0FBC051214DD68BC0512B0
:101FA30014DDCBBC051214DD39BD051214DD8EBD65
:101FB300051214DD83BE051214DDE8BE051214DD1F
:101FC300B6BF051214DDC1C7071214DDFEC7071221
:101FD30014DD23C8071214DD3FC8071214DD54C8EB
:101FE300071214DD9184071214DDA085071214DD96
:101FF3004886071214DD4287071214DD6387071230
:1020030014DD7D87071214DD1F88071214DD508845
:10201300071214DDD088071214DDE9F6051214DD6A
:102023004BF7051214DDDFF7051214DD6EF9051207
:1020330014DDAFFC051214DDC5FC051214DD87FDAC
:10204300051214DD66CC071214DD86CC071214DDED
:102053009ACD071214DD9DCD071214DD1ED307128E
:1020630014DD54D3071214DD6ED3071214DDB0D37D
:10207300071214DDC0D3071214DD5AD4071214DD7E
:102083001DB6061214DD27B6061214DD61B606125C
:1020930014DDCAB6061214DDE7B6061214DD89B7DD
:1020A300061214DD92B7061214DDD7B7061214DD3B
:1020B30000B8061214DD0DB8061214DD7EB8061240
:1020C30014DD09B9061214DD57B9061214DD95B9EA
:1020D300061214DDFAB9061214DD1DBA061214DD58
:1020E30094BA061214DDEBBA061214DD26BB0612EF
:1020F30014DD5BBB061214DD6DBB061214DD7FBB62
:10210300061214DD9EBB061214DDA7BB061214DDF6
:1021130062BC061214DDAEBC061214DDECBC061262
:1021230014DD7CD0071214DDBCD1071214DD43DEAD
:10213300071214DDA4AB071214DDE8AB071214DD9C
:1021430030AC071214DD16AE071214DDA5AE07126C
:1021530014DD5BDB071214DD0080051214DD24811E
:10216300051214DD5E81051214DD0883051214DDEA
:102173003283051214DDA785051214DDE7850512E8
:1021830014DD7D87051214DD1A88051214DD6C88B1
:10219300051214DD0F89051214DD4789051214DDBC
:1021A3008989051214DDF88A051214DD468C05129F
:1021B30014DD778E051214DDA58E051214DDCC8E89
:1021C300051214DDD58E051214DD258F051214DDDD
:1021D300B78F051214DDE692051214DD699305121B
:1021E30014DDDE7F001214DDF47F001214DDAA91EA
:1021F300071214DDC091071214DD6492071214DD77
:10220300A392071214DDC092071214DDF192071294
:1022130014DD3E93071214DD7193071214DDAC93A2
:10222300071214DDA195071214DD03D5061214DD80
:10223300A9D6061214DDEAD7061214DD02D8061257
:1022430014DD528D071214DD898E071214DDE88F19
:10225300071214DD1DAE061214DD46AF061214DD9F
:1022630045B0061214DD89B1061214DDA8B20612B8
:1022730014DD7AB3061214DD7EC0071214DD4CC1DF
:10228300071214DDB693051214DD7B94051214DDD9
:102293008694051214DD3795051214DD9695051203
:1022A30014DD9297051214DD0298051214DD079AC6
:1022B300051214DD409A051214DDE69C051214DDA7
:1022C3000E9D051214DD909D051214DD0B9E051263
:1022D30014DD6E9F051214DDCB9F051214DD49A09A
:1022E300051214DD45A5051214DD89F4061214DD6B
:1022F300B0F4061214DDBEF6061214DDE5F606127E
:1023030014DD3AF7061214DD08F8061214DD80F81E
:10231300061214DDB2B9071214DDCAB9071214DDAF
:10232300C9BA071214DDD0BA071214DDF9BA0712BD
:1023330014DDC6D9071214DD25DA071214DD63DABA
:10234300071214DDA4DA071214DD2BE0061214DDE4
:1023530051E0061214DD91E1061214DD86E2061245
:1023630014DDADE2061214DD46E3061214DD9AE332
:10237300061214DDB5E4061214DD48C9061214DD95
:10238300EAC9061214DD0ACB061214DD5CCC061270
:1023930014DD1ACE061214DD22CD051214DD76CD1E
:1023A300051214DDA0CE051214DDCCCF051214DD09
:1023B300BAD0051214DD56D3051214DD0DD505125E
:1023C30014DD58D5051214DD66D7051214DD64A19A
:1023D300071214DDB1A1071214DD34A2071214DDB4
:1023E300C0A4071214DDCDD1071214DD47D20712A2
:1023F30014DD62D2071214DD10C6071214DD13C7F1
:10240300071214DD7BC7071214DD59C4071214DD4C
:10241300A4C4071214DDF4C4071214DD0FC5071298
:1024230014DDDFCA071214DD3ACB071214DD36CCF4
:10243300071214DD0ABC071214DD73BC071214DD86
:10244300E9BC071214DD04BD071214DD8CFF04126E
:1024530014DDCBFF041214DDC6DA061214DD3CDCF6
:10246300061214DD6CDC061214DD33DD061214DDF6
:10247300AADD061214DD28DE061214DD07DF0612BC
:1024830014DD01DE071214DD14DE071214DD94D50A
:10249300071214DDA3D5071214DD03D6071214DDCA
:1024A300E1FF021214DDE7FF021214DDEDFF021259
:1024B30014DD0080041214DD0C80041214DD6E8020
:1024C300041214DD7880041214DD0B81041214DD70
:1024D3004781041214DD0382041214DD16820412F0
:1024E30014DD6682041214DDD082041214DD3583F8
:1024F300041214DD6B83041214DDED83041214DD66
:102503009C85041214DD7087041214DD56880412AE
:1025130014DDA889041214DDFE8B041214DD678D0B
:10252300041214DD048E041214DDAC92041214DDC3
:102533009A93041214DD3894041214DD6494041283
:1025430014DD0095041214DD1595041214DD39957C
:10255300041214DD9F95041214DDBC95041214DDDE
:10256300E695041214DD6397041214DD84970412B4
:1025730014DD0A98041214DDB098041214DDF798E0
:10258300041214DD6A99041214DDF699041214DDA1
:102593005A9A041214DDBA9A041214DD509B0412E1
:1025A30014DDCB9B041214DDFE9B041214DD609C2E
:1025B300041214DDC29D041214DD329E041214DDD4
:1025C300E19E041214DD37A0041214DDCFA004121F
:1025D30014DD3BA1041214DD7EA3041214DD0AA54D
:1025E300041214DD35A5041214DD1BA7041214DD37
:1025F300B1A8041214DDBAA9041214DD67A50512EB
:1026030014DD1EA6051214DD25A7051214DDA3A7EC
:10261300051214DDE5A8051214DD06A9051214DD63
:10262300BEA9051214DD69AA051214DD49AE05120F
:1026330014DD65B0051214DDCCB1051214DD79DDAE
:10264300071214DDCAD6031214DD25D7031214DDD5
:10265300AFD7031214DD20D9031214DDF8D9031206
:1026630014DDE1DA031214DDF8DA031214DD4ADBB8
:10267300031214DDAEDB031214DDEFDB031214DDF2
:1026830002DC031214DD58DC031214DDB1DC031287
:1026930014DDC9DC031214DD56DF031214DDEBDF96
:1026A300031214DD15E0031214DD5EE0031214DDE2
:1026B3004EE2031214DDB8E2031214DD8CE30312BD
:1026C30014DDCFE3031214DDE9E3031214DD30E478
:1026D300031214DD52E4031214DDFCE4031214DDCF
:1026E300F4E5031214DD4EE6031214DD9FE6031234
:1026F30014DD37E8031214DDAFEA031214DD2DEB0A
:10270300031214DD5AEB031214DDCDEB031214DDB7
:10271300F0EB031214DD6AEC031214DD35ED031242
:1027230014DD72ED031214DDD4ED031214DD95EE06
:10273300031214DD98EE031214DDA2EE031214DD6E
:10274300ACEE031214DDBFEE031214DD31EF0312FE
:1027530014DD5AEF031214DD6DEF031214DD99EF4C
:10276300031214DDC0EF031214DDE4EF031214DDD2
:102773001FF0031214DD91F0031214DDB9F00312FC
:1027830014DDFAF0031214DD2FF1031214DD4FF1FF
:10279300031214DD8CF1031214DDC3F1031214DDF3
:1027A300C3F2031214DDF6F3031214DD0CF4031267
:1027B30014DD34DC071214DD4CDC071214DDEFFFEB
:1027C300031214DD8CF8041214DDDBF8041214DD9B
:1027D3007BFA041214DD36FC041214DD78FC0412B7
:1027E30014DD61FD041214DD6BFE041214DD8DFE95
:1027F300041214DDD7FE041214DD31B3071214DD05
:102803002ED8021214DD51D8021214DD44D902125B
:1028130014DD8DD9021214DDE5D9021214DD43DA79
:10282300021214DD8FDA021214DD05DB021214DD4D
:1028330091DB021214DD06DC021214DD49DC021204
:1028430014DD29E0021214DD78E2021214DDABE29A
:10285300021214DD22E3021214DD53E6021214DD28
:10286300C8E6021214DD53E8021214DD60E9021215
:1028730014DD76EA021214DDECEA021214DDB3EB86
:10288300021214DD1CEC021214DD1FEC021214DD23
:10289300FEFD061214DD38EE021214DDF3EF021210
:1028A30014DD9FF1021214DD91F2021214DD21F303
:1028B300021214DD75F4021214DD97F5021214DD11
:1028C300EEF5021214DD8BF6021214DD15E3041289
:1028D30014DDB5E3041214DD1FE4041214DDC6E4B1
:1028E300041214DD25E5041214DDD1E5041214DD10
:1028F3007AE8041214DDA0E9041214DD24EA0412B8
:1029030014DD01EC041214DDA6EC041214DD49ED10
:10291300041214DDA8ED041214DD61EE041214DDBB
:10292300E0EF041214DD9DF1041214DD1EF3041212
:1029330014DD78F4041214DD88F5041214DD2EF688
:10294300041214DD4DF7041214DD94C8041214DDCF
:102953000CC9041214DD54C9041214DD98C90412FD
:1029630014DDE1C9041214DD2BCA041214DD60CA9C
:10297300041214DDDECA041214DD38CB041214DD94
:1029830091CC041214DD10CD041214DD27CE0412F1
:1029930014DD49CE041214DD55CF041214DD66CFC5
:1029A300041214DD7ECF041214DD9ED0041214DD54
:1029B300BBD0041214DD8ED1041214DDB2D1041283
:1029C30014DDC9D1041214DDEAD1041214DD0CD2D2
:1029D300041214DDFED2041214DD56D3041214DDE6
:1029E300CCD4041214DD2AD5041214DD49D5041203
:1029F30014DD7BD6041214DDF8D6041214DD65D77A
:102A0300041214DDA5D7041214DD07D8041214DD53
:102A1300B7D8041214DD89DA041214DD74DB04124E
:102A230014DD6EDC041214DD74DD041214DD90DE9B
:102A3300041214DD9EDE041214DD77DF041214DDAC
:102A430017E0041214DD5BE0041214DD70E00412DD
:102A530014DD81E1041214DD24E2041214DD7CE2AE
:102A6300041214DDAEAE071214DDE7AF071214DD56
:102A7300A4B0071214DD08B1071214DDAE950712D6
:102A830014DDCC95071214DD1096071214DD36966B
:102A9300071214DD5C96071214DD7496071214DD19
:102AA3008C96071214DDA496071214DD07970712FC
:102AB30014DD4997071214DD6B98071214DD74981F
:102AC300071214DD7D98071214DD8698071214DDB2
:102AD3009098071214DDB198071214DDF8880712D5
:102AE30014DDD88C071214DDE68C071214DDEB8C91
:102AF300071214DDE6C2071214DDD3DB071214DD5F
:102B0300D4FF011214DD53C9071214DD25DE0712A9
:102B130014DD0080021214DD5780021214DDC3801D
:102B2300021214DD4F81021214DD0582021214DD3C
:102B33004D82021214DD6682021214DD89820212B2
:102B430014DDAB82021214DDE982021214DD388334
:102B5300021214DD6383021214DDC183021214DD39
:102B63006884021214DD1085021214DD8C850212B2
:102B730014DD5986021214DDA086021214DDEC86E0
:102B8300021214DD7487021214DDAD87021214DD04
:102B93000388021214DD1F88021214DD4E8802120C
:102BA30014DD5A8A021214DD888B021214DDB48BF1
:102BB300021214DDE88B021214DD098C021214DDFB
:102BC300188C021214DD238C021214DDD28C021233
:102BD30014DD428D021214DDCD8D021214DDD58D6C
:102BE300021214DD428E021214DD7E8E021214DDF7
:102BF300448F021214DD1790021214DD6C9002123E
:102C030014DD0B91021214DD6591021214DDAA91F9
:102C1300021214DD4394021214DD8695021214DDB0
:102C23007098021214DD5499021214DD389A0212BC
:102C330014DD499A021214DDBB9A021214DD529B71
:102C4300021214DDB79B021214DDA79C021214DDDD
:102C5300CC9C021214DDEA9C021214DD069D0212C2
:102C630014DD799D021214DD889D021214DD109E7D
:102C7300021214DD0D9F021214DD1A9F021214DDDD
:102C8300239F021214DD05A1021214DD27A20212F2
:102C930014DD37A2021214DD65A3021214DDE4A3CE
:102CA300021214DDFFA4021214DD3BA5021214DD8F
:102CB30015A7021214DDD2AA021214DDE6AA02122B
:102CC30014DDF0AA021214DDFAAA021214DD04AB19
:102CD300021214DD1DAB021214DD27AB021214DD48
:102CE30094AB021214DD9FAB021214DDC7AB0212C8
:102CF30014DDD2AB021214DD37AC021214DD42AC88
:102D0300021214DD66AC021214DD8AAC021214DD69
:102D1300FCAC021214DD45AD021214DD61AD0212EA
:102D230014DDD2AD021214DD1EAE021214DD67AE45
:102D3300021214DDA5AE021214DD26AF021214DD59
:102D4300CDAF021214DD9CB1021214DD01B20212E6
:102D530014DD2FB3021214DD55B3021214DD9DB43A
:102D6300021214DDD7B7021214DDD5B9021214DD35
:102D7300A0BB021214DD39BC021214DD3ABE0212EA
:102D830014DDEFBE021214DD28BF021214DD8EBF64
:102D9300021214DD98BF021214DDC1C1021214DD48
:102DA30000C3021214DD57C3021214DD02C402125F
:102DB30014DDB2C5021214DDFFC6021214DD1FC7F3
:102DC300021214DD74C7021214DD75C8021214DD79
:102DD3009DC8021214DDFCC8021214DDF4C90212EC
:102DE30014DD6BCA021214DD7ECB021214DDECCBB0
:102DF300021214DDEBCC021214DD45CF021214DDF6
:102E03006ECF021214DDD4D0021214DD56D2021298
:102E130014DDADD2021214DD5BD3021214DD00D433
:102E2300021214DD59D4021214DD17D5021214DD77
:102E3300A9D5021214DD08D6021214DD4AD60212F5
:102E430014DD7BD6021214DDD2D7021214DD00800A
:102E5300031214DD3280031214DD6B80031214DDC0
:102E63002982031214DDFF82031214DD5E83031231
:102E730014DD7484031214DDC084031214DD4E8741
:102E8300031214DD288A031214DD6F8B031214DD81
:102E9300078C031214DD138C031214DD5C8C0312F4
:102EA30014DD9E8D031214DD948E031214DDBE8E89
:102EB300031214DD148F031214DD6D8F031214DD5E
:102EC300E08F031214DD1692031214DD989303129C
:102ED30014DD8394031214DDCD95031214DD0598DC
:102EE300031214DD029B031214DD119B031214DD84
:102EF300A59B031214DD509C031214DD939C031253
:102F030014DDDC9C031214DD2C9D031214DD909D53
:102F1300031214DD029E031214DD1E9E031214DD40
:102F23004D9E031214DD8C9E031214DD879F031242
:102F330014DD36A0031214DDB3A2031214DDE5A3DE
:102F4300031214DDBDA4031214DD3FA5031214DD27
:102F530074A9031214DD81A9031214DDB0A90312AD
:102F630014DD0BAA031214DD3EAA031214DDB6AA64
:102F7300031214DDE9AA031214DD4AAB031214DDB4
:102F83009AAB031214DD67AC031214DD20AD0312F8
:102F930014DDE4AD031214DD5EB0031214DDC0B121
:102FA300031214DD11B3031214DD35B4031214DD5F
:102FB30038B4031214DD67B4031214DD5FB60312D1
:102FC30014DD1EB7031214DD4DB7031214DD6BB805
:102FD300031214DD33B9031214DDF1BA031214DD45
:102FE30023BB031214DD65BB031214DD64BC03129F
:102FF30014DDD7BC031214DD00BF031214DD5FBF61
:10300300031214DDB3BF031214DDE2C1031214DD96
:10301300C5C2031214DD81C3031214DD95C3031269
:1030230014DDA9C3031214DDD6C3031214DD06C4D1
:10303300031214DDC1C5031214DDD3C6031214DD5C
:1030430028C7031214DD71C7031214DD98C70312D6
:1030530014DD60C8031214DD06C9031214DD8CCA23
:10306300031214DDD3CA031214DD45CB031214DD9E
:103073009ACC031214DD43CD031214DD77CD031272
:1030830014DD8FCD031214DD32CE031214DDAED066
:10309300031214DD56D2031214DD74D2031214DDAD
:1030A30092D2031214DD5ED3031214DDACD60312E5
:1030B30014DDC185011214DDF985011214DDF98ACD
:1030C300011214DD3F8B011214DD758C011214DD26
:1030D300DA8C011214DD4F8E011214DD59910112A5
:1030E30014DD8292011214DD959C011214DD259DDD
:1030F300011214DD0FA0011214DD1CA1011214DD55
:103103007FA1011214DDC7A2011214DD35A501123E
:1031130014DDC7A6011214DD54A7011214DD73A830
:10312300011214DD00A9011214DD0AA9011214DD34
:1031330032A9011214DDD2A9011214DDBDAA0112B4
:1031430014DD8AAB011214DDA7AB011214DDD0AB81
:10315300011214DDFDAB011214DD44AE011214DDC6
:1031630013AF011214DD52AF011214DDD4AF0112FB
:1031730014DD75B0011214DDA7B0011214DDEEB039
:10318300011214DD21B1011214DD65B1011214DD48
:10319300B4B1011214DDB9B1011214DD15B201127B
:1031A30014DD59B2011214DD33B3011214DD98B3E7
:1031B300011214DDFEB3011214DD79B4011214DD22
:1031C300E1B7011214DDE4B8011214DD62BA011291
:1031D30014DD78BD011214DD1ABE011214DD63C0C3
:1031E300011214DD1EC1011214DD5DC1011214DDD3
:1031F30035C3011214DD52C3011214DD5BC3011286
:1032030014DD64C3011214DD6FC3011214DD8EC318
:10321300011214DD32C5011214DD8FC5011214DD54
:1032230099C5011214DDA3C5011214DD02C60112F2
:1032330014DD4CC6011214DD4DC7011214DDA4C701
:10324300011214DDB5C8011214DDFEC8011214DD2C
:10325300B8C9011214DDCFCA011214DDA4CB0112C7
:1032630014DDEBCC011214DDEFCD011214DDE8CE39
:10327300011214DD00CF011214DD37CF011214DD6A
:1032830041CF011214DD4BCF011214DD56CF0112D1
:1032930014DD74CF011214DDBCCF011214DD1AD07A
:1032A300011214DD41D0011214DD53D0011214DDDB
:1032B30008D1011214DD41D1011214DD63D20112D0
:1032C30014DDB6D2011214DD9CD3011214DDC3D375
:1032D300011214DD33D4011214DDAFD4011214DD55
:1032E3000BD6011214DD32D7011214DDF4D701120B
:1032F30014DDC2D8011214DD80D9011214DD68DA9D
:10330300011214DD12DB011214DD7ADB011214DD6C
:103313002FDC011214DD8BDC011214DDE3DC01125E
:1033230014DDA9DD011214DDCCDD011214DD87DE0D
:10333300011214DDA9DE011214DD0ADF011214DD0E
:103343003AE1011214DD33E2011214DDDFE201126E
:1033530014DD00E5011214DD49E5011214DD94E5E5
:10336300011214DDF0E5011214DD4EE6011214DD45
:1033730072E6011214DD96E6011214DDCBE60112AA
:1033830014DDF3E6011214DD38E7011214DD8CE7D6
:10339300011214DDE5E7011214DDDFE8011214DD8B
:1033A3007DEA011214DDC2EA011214DDEBEA011217
:1033B30014DD74EB011214DDE7EB011214DDF5EB00
:1033C300011214DD19EC011214DD6FEC011214DD8E
:1033D3008AEC011214DD45ED011214DD71ED0112C9
:1033E30014DDB4ED011214DD17EE011214DD25F026
:1033F300011214DD51F0011214DD0CF1011214DD80
:10340300F0F1011214DD84F2011214DDA2E20512BF
:1034130014DDDAE2051214DDFBE2051214DD3DE3EF
:10342300051214DDA1E3051214DDABE3051214DD6F
:10343300BBE3051214DDF2E3051214DD9BE705126D
:1034430014DD63E9051214DD47EB051214DDE9EB26
:10345300051214DD73EC051214DDBC43001214DDF8
:103463006544001214DD4445001214DD5046001279
:1034730014DD7046001214DD9247001214DD424938
:10348300001214DDAF49001214DD804A001214DD6E
:10349300864B001214DDFE4B001214DD394C001272
:1034A30014DD924C001214DDCD4C001214DD164DC8
:1034B300001214DDAA4D001214DD404E001214DD7B
:1034C300154F001214DDE84F001214DD7650001280
:1034D30014DD9C50001214DDC950001214DDFA50A3
:1034E300001214DDC751001214DDD751001214DD90
:1034F3002A52001214DD3752001214DD4452001216
:1035030014DD4D52001214DDB152001214DD0F53BD
:10351300001214DD5A53001214DD7553001214DD2A
:103523009C53001214DDB953001214DDC55300126D
:1035330014DD5655001214DD6F55001214DDEB55E2
:10354300001214DDFE55001214DD0E56001214DDB8
:10355300B256001214DD1E58001214DD3159001248
:1035630014DDD159001214DDDB59001214DD5A5A4F
:10357300001214DD6B5A001214DDAA5A001214DD76
:10358300D85A001214DDA55B001214DDFC5B001297
:1035930014DD355C001214DD8B5C001214DDA95CB4
:1035A300001214DDF75C001214DDC25D001214DD9D
:1035B300105E001214DD5D5E001214DDE05E001289
:1035C30014DD0A5F001214DD405F001214DD4F5F4B
:1035D300001214DDAE5F001214DD2660001214DD4C
:1035E3006760001214DDB760001214DDE2600012A0
:1035F30014DDFC60001214DD1661001214DDEB61B2
:10360300001214DDF561001214DD3062001214DDC6
:103613004062001214DD9162001214DDA5620012F3
:1036230014DDC763001214DDDC63001214DD6F6464
:10363300001214DDE364001214DD8865001214DD4A
:103643009365001214DDF666001214DD1267001292
:1036530014DD5E67001214DDCC67001214DDFE6713
:10366300001214DD1868001214DD7868001214DDEE
:103673001769001214DD6269001214DDB56B0012C4
:1036830014DD4D6C001214DDC46C001214DD216FC7
:10369300001214DD396F001214DD3C6F001214DDCB
:1036A300486F001214DD5C6F001214DD646F0012AA
:1036B30014DD9B6F001214DD8F70001214DD19717D
:1036C300001214DD9B71001214DD1B72001214DD55
:1036D300F272001214DD1473001214DDAD730012C4
:1036E30014DD0A74001214DD0D74001214DD7C74F1
:1036F300001214DDC875001214DDDB76001214DD30
:103703006677001214DD7978001214DD4079001217
:1037130014DD7179001214DD9779001214DDA0799C
:10372300001214DDCF79001214DD7F7A001214DD4C
:103733002F7B001214DDA27B001214DD457C0012E6
:1037430014DDB87C001214DDF77C001214DD407D1B
:10375300001214DD15B3071214DD08B2071214DDCD
:103763007CB1071214DD11CC051214DD86CA0512D3
:1037730014DD8CC9051214DDC1C8051214DD2EC772
:10378300051214DDCAC6051214DDCEC3051214DDFD
:10379300FAC2051214DDF5C1051214DDADD9071205
:1037A30014DD47D9071214DD0BC1051214DDCAFF5E
:1037B300031214DDC4D8071214DD51DB071214DD24
:1037C30014E8061214DDEDE6061214DD69E60612AE
:1037D30014DD5BE5061214DDFBFE011214DD21FE90
:1037E300011214DD57FD011214DDC6FB011214DDB5
:1037F3008FFB011214DD61FB011214DD15FB0112B5
:1038030014DD7EFA011214DDEEF9011214DDC8F99C
:10381300011214DD7DF9011214DD47F9011214DDE3
:10382300CAF8011214DD65F8011214DD14F801124F
:1038330014DD3CF7011214DDACF6011214DD60F661
:10384300011214DDDBF5011214DD96F5011214DD0E
:103853007AF5011214DD22F4011214DDEBDA0712FA
:1038630014DDF4F3011214DDD6DA071214DDC6DA1F
:10387300071214DD72DE071214DDB8DC071214DD43
:103883008CDC071214DDF2FF031214DDA4D7071238
:1038930014DD99D7071214DDC1F3011214DD45F3CA
:1038A300011214DDDDF2061214DD38F1061214DD07
:1038B3008AD7071214DD46F0061214DD8BEF0612C9
:1038C30014DD57E2051214DDFEE1051214DDC5D641
:1038D300071214DDC9E1051214DDFCEC021214DD3C
:1038E30094E1051214DD60E1051214DDF3E0051225
:1038F30014DDDBE0051214DDB6E0051214DD87DD0F
:10390300051214DD5ADB051214DD5AD9051214DD34
:10391300E0D8051214DD91D8051214DD4BD8051239
:1039230014DDEDD7051214DDDBF4051214DD60F4AC
:10393300051214DDF8F2051214DD7FF1051214DD12
:10394300B4D6071214DD08EF051214DD8DED051250
:1039530014DD31ED051214DD22ED051214DD58FFDF
:103963000400000080FB000000002001C08500006F
:1039730001002001C085000002002001B88500007D
:1039830003002001B9850000040042016D8000009E
:10399300050042017E80000006004201A080000075
:1039A30007002001AB800000100042018F8000005F
:1039B300110020018008000000404201A0800000A7
:1039C30000804201D28106000000101100000700B0
:1039D3000000303300000700100030330000070000
:1039E300014020330000070002402033000008009C
:1039F3000000203300000C005500393300000C0098
:103A03001C00423300001200550021010000140085
:103A13000E00422200000004000021040000020402
:103A23000000290400000304000029040000050429
:103A33000000290400000C040000390400000D04F8
:103A43000000390400002A040000390400000207C2
:103A5300000029040000020700021805BB850207C5
:103A6300000330050000020701032205E484020776
:103A730002032205E884020703031801BE85020737
:103A8300060318010000040B00001B05CC84040B83
:103A9300000129050000040B030129050000040BA4
:103AA300060129040000040B00022105AB85040B69
:103AB30001022105B385040B02022105AB85040B2A
:103AC30003022105B185040B04022105AB85040B18
:103AD30005022105AD85040B000321040000040B3E
:103AE30000042105AB85040B01042105A985040B02
:103AF300050521050000040B080521050000040B42
:103B03000B0529040000040B100528040000040B16
:103B130000062105AB85040B01062105B385040BC3
:103B230002062105AB85040B03062105B185040BB1
:103B330004062105AB85040B05062105AF850000AE
:103B4300000000000120283900010220283900016B
:103B53000320283901000420283900010500941EA0
:103B630000000600000000000700663700000800A0
:103B73007E2200000000000000000A000000000098
:103B83000B20722210000C02C03700000D00000051
:103B930000000E20283910010F20283910000000E2
:103BA3000000000000000000000000000000000012
:103BB3001300922300000000000000001500BA1C4F
:103BC30041001600BA1C500017019223000018018F
:103BD300000000001900E42200001A00E4220000A3
:103BE3001B00742310001C01C61900011D01C61916
:103BF30000011E000E2310031F01A438080020003B
:103C03009A2400002100FA2700002200141D10004E
:103C13002300C03700000000000000000000000087
:103C2300000026014E221000270000000000280992
:103C33003C2200002900522410002A60541900037A
:103C43002B22722210002C007C2410002D027C24D5
:103C530010002E00000000002F00000000003000C4
:103C63002C2310003101000000003200000000008E
:103C730033000000000034000000000035000000A5
:103C8300000036000000000037000000000038008C
:103C9300000000003901C61900013A0000000000CD
:103CA3003B00000000003C00000000003D0000005D
:103CB30000008F000100F51B87000100B61E3500D0
:103CC30004007A1E250002007E1E26000200801ECC
:103CD30027000200821E280001008C1E290001001B
:103CE3008D1E840004008E1E86000100921E2A0091
:103CF3000100931E2B000100941E2C000100981E4E
:103D03002D000800DD1B2E000100991E2F0001006D
:103D13009A1E300001009B1E310001009C1E3200E0
:103D23000100E51B33000100E61B340001009D1E6A
:103D330036000100E71B380001009E1E3900010018
:103D4300971E83000200B41E63000100F21B64008F
:103D53000100951E65000100961E6D000100F31B16
:103D630071000800D51B66000100B31E430001006B
:103D7300A41E44000200A51E45000100A71E460024
:103D83000200A81E47000800EA1B48000100AA1E03
:103D93004B000100AB1E04000100B71EA10001008F
:103DA300BA1E37000100B91E88000100B81E3C008E
:103DB3000100E81B3D0001009F1E49000200AC1EEC
:103DC30067000100F41B4D000200AE1E4E0001000F
:103DD300B01E4F000200B11E3E000100A31E5100A1
:103DE3000100A01E52000100A11E53000100A21EEB
:103DF30054000100E91B00000000000000013636FA
:103E03000101000102010001030100010401060692
:103E130005020000070100340801000F0904010135
:103E23000D0100FF0E08000017020000190100FF3A
:103E33001A0100011B0100FE1C0100081D02000005
:103E43001F01000120010001210200002301000FD6
:103E5300240200002601000127010008280200FFB8
:103E63002A0100072B0102402C0100002D01000153
:103E73002E0100012F0100FF30010B1D310800004E
:103E83003A0100083B01000F3C0100013D0100FF26
:103E93003E04000042040000460400004A040000FF
:103EA3004E04000052040000560400005A040000AF
:103EB3006A0078003A24402446246C00F000E6238C
:103EC300EC23F2236B00F000FE2304244624660057
:103ED300F000FE2304244624670014001024162453
:103EE3001C246900140022242E242824EE22E80333
:103EF300AA23C823C2236400010000000000E023BA
:103F03006300010000000000E023620001000000E4
:103F13000000E0236100010000000000E0237000C6
:103F2300010000000000E02301037103010301030A
:103F3300010301030103220302030103100300032E
:103F43000003000300030003000300034203000314
:103F530024030603000300030403120325032303BE
:103F630025032303040304030003000300034403A2
:103F730000030003230300036503210035038103CA
:103F830000030503000300030003000325032303C9
:103F93000300710030016000110070003102200342
:103FA30050048000100061000000140063007300DF
:103FB30072006200430000001300060000000000CE
:103FC30004001200000000000000000004000400D0
:103FD300370037003C0244000000000000000000EE
:103FE300650000003500810000000500000083002B
:103FF3000000010171010101010111010101310100
:10400300010101018001100161013B001400630102
:1040130073017201620143010001130106013D01B5
:104023003500040112010001000100010001040137
:104033000401330133013C01440132013600000124
:1040430000016501000135008101000105018201C4
:104053008301000103047104020460041104700469
:1040630002040204010402041004610400041404A1
:104073006304730472046204430400041304060417
:1040830000040004040412040004000400040004F7
:104093005104640000040004000444040004000408
:1040A300000400046504000435048104640005046D
:1040B3000004830400040302710230016002110250
:1040C30070020102020202028002100261023A003F
:1040D300410063027302720262024302000213028E
:1040E3003800000200020402120200020002000271
:1040F300000204020402370037003C0244020002BB
:10410300390000020002650200023502810200024A
:10411300050282028302000236000100060000004D
:104123000F0000000000000000000000000003FF7B
:10413300FF00000403FFFF0000FFFF0FF401000571
:10414300C4040320000100000B0000000000000075
:104153000003010F00000000000000000000000049
:10416300000000000000000000000000000000004C
:10417300000000000000A825E425AE25D024B425C6
:10418300EA25B425F625BA25D024B425EA25C02589
:10419300D024C625D024CC25D024D225D024D8257C
:1041A300D024DE25D0240000000000000000000021
:1041B30000000000000000000000000000000000FC
:1041C30000000000000000000000000000000000EC
:1041D30000000000EA28130096281F009C281F8077
:1041E300A2280100EA2802001E2803002428040054
:1041F3002A280500302806003C2830005A283100C0
:1042030054283200662833006C28350072283400A5
:10421300782836007E2811008A281400DA38150021
:104223004E28FFFF00000A00000002000000040007
:104233000000080000001000000020000000400003
:1042430000008000000000010000000200000004E4
:1042530000000008000000100000002000000040E3
:10426300000001EE300618310812310B3031100016
:104273002E02F43005063107FA300CD6300DE23049
:1042830064FC2BFF000007ECFDFDFDECDCDCCCBC8B
:10429300ACAC9C9C8C7C7C6C6C5C5C5C4C4C3C3C0B
:1042A3002C2C1C1C03EAF5E5D5D5C5B5A59595853C
:1042B30085757565655555454535352525151505AB
:1042C30000160F00000B150B020002220F33000033
:1042D3000E5A6967426565416C6C69616E6365304E
:1042E3003901030507090B0D0F00020406080A0C28
:1042F3000D0001191618161618230300303017186D
:104303001921301B1D1F30303016181920231A1C99
:104313001E3000393D3F373C3C362C442D00034AC8
:1043230049434E181A2505020C0E020B040B0A070B
:1043330008000F020402010101010902E803000061
:1043430000BE040A0E00E80300007F000000050819
:104353001E0404091003030A0C10080C2800041E91
:104363000903010C05081500FFE004124BECA2E75A
:1043730092AF22E4F0A3F0A3F022A3124376A3F0BA
:10438300227F0C02120AE0F508E4F509F50AF50BA1
:10439300227401F090051CE0640F22740912150DBC
:1043A3007F0402120AA3A3E024F5C3941322900509
:1043B3003C126EDC7A147B0022C082C083901D11F4
:1043C30074BAF0A37434F0A374CCF0A37434F090F3
:1043D3001D1574A2F0A37434F0A3749CF0A3743479
:1043E300F0A374D8F0A37434F0A374DEF0A3743490
:1043F300F0A374D2F0A37434F0A3748AF0A37434DA
:10440300F0901D2174AEF0A37434F0A374B4F0A340
:104413007434F0A374A8F0A37434F0A374E4F0A389
:104423007434F0901D3212646960061266D312214F
:1044330046901D2F125B957408F0A3E4F0A3F0904F
:104443001DD2F0901D34F07C0BFDF97A357B1D12E3
:1044530020927C0B7D0079007A407B1D1220920212
:104463005B9E74F7120E5574F71215F0EAFEEBFF1C
:104473001259BC74051245327403F0EE2402FAE4B7
:104483003F12450C242DFCE43FFD8C828D831246A4
:104493004A12451B6008124D9474FFF0A3F0EE24FA
:1044A3002BE43F1C1CFD8C828D83A3E0C0E08A8239
:1044B3008B831259CDD0E012451B88828983126108
:1044C300C52403126CA612234474081218877403BC
:1044D300F090053112131174021215D27903EEFA1A
:1044E300EFFB123676740212150DE9F5087007EE2C
:1044F300FAEFFB12355CA9087409024DA4F582E4B6
:104503003FF5831279111261BAFB8A828B831245BC
:104513002AE8F0A3E9F0EE22126EFA12452AE8F037
:10452300A3E9127476E0221246158A828B8322F065
:10453300A3E4F012453A22EE240DF582E43FF5831D
:104543002274F1120E55EAFEEBFF8C088D09890ADD
:1045530012461F8A828B83124615740F1218871214
:104563004638E824FF18E934FFF988828983E50A8D
:1045730012462A90053612462790053512462774AF
:1045830011121887124638EE2404FCE43FFD880B11
:104593008A828B83E0F50C8C828D83E0250CC39596
:1045A3000B126EF6E8F0A3E9125929A3A3A3A3A360
:1045B300A3A3A3E064037008125C85F0A3E4800363
:1045C30012492B1245357409F0750C35750D1D759F
:1045D3000E00780C1214F612491F1220867403126F
:1045E300150D750CFF750DFF780C1214FAAC08ADA0
:1045F300097903EEFAEFFB123676740212150DE910
:10460300F5087007EEFAEFFB12355CA9087F070285
:10461300120AE024FFF8A3E034FFF922EE2402FAA1
:10462300E43FFB2212464A12462E22F0E824FF18EA
:10463300E934FFF922E0F50CA312464A12462E880C
:10464300828983E50CF022E08882898322C082C0BC
:1046530083901D51E0C39408400474078001E08AED
:10466300828B83F033333354F8F9025B9E74F01278
:104673000E55EAFEEBFF890C8C0E8D0F750A00A216
:10468300AFE433F50BC2AF901D4B803F1247585038
:104693003712476964037030EE24F9FEEF34FFFFED
:1046A300850882850983A3A3E02405FCA3E03400E5
:1046B300FDEEFAEFFB122344EE24FF1EEF34FFFF5F
:1046C3007410250AF50A150C1258F612790DE50C2B
:1046D3006006E508450970B4E50BA2E092AFA2AF0E
:1046E300E433F50BC2AF901D4B802C2402FAE43562
:1046F30009FB8A828B83126EE52406F582E438F582
:10470300831247768A828B8312475EA3A31247766E
:10471300050A150C1258F612590B602212476964E8
:104723000270F1124758E50840C1124A59A2E550F8
:10473300E3850E82850F837401F0E50C70D6E50BDB
:10474300A2E092AF8E828F83E50AF0EE24FFFAEFA8
:1047530034FFFB8035124A64A2E62212476222121A
:1047630072DAA3A3A3228508828509831272D41265
:10477300690E22E08E828F83F0EE24FF1EEF34FF5A
:10478300FF22123742740412150D7F0802120A74B5
:10479300EC120E5574F51215F089138A128B0F85DE
:1047A3001882851983E4F0041215CA12346CE9F8EF
:1047B30090051BE0292434F508FA7B001220A48A13
:1047C3000A8B0BAE0AAF0BEE4F7003024913EE24B4
:1047D30002F50AE43FF50BA808EE28F8E43FF98553
:1047E3000A82850B831245142404F510E43FF51166
:1047F300851082F583E4F090051BE0FCF8C3E49890
:10480300F895E0F9850A82850B83E028F508A3E093
:1048130039F509900519126B9E750E00780C121468
:10482300F67D00AA08AB09122086740312150DAC9D
:1048330018AD197401121887E0F9E50824FFFAE5A9
:104843000934FFFB1234728A828B83E4F0EA24FF7B
:10485300F508EB34FFF509E50FC454F0F9901DD3C7
:10486300E0C4333354C0F8900515E0A2E0E43313F9
:10487300134849440F124933E512C454F0451385D4
:104883000882850983F0A808850A82850B83E0FAEC
:10489300851082851183E02AC398F0850A82850BEF
:1048A30083E8F0A3E509F012492B124535E4F074CF
:1048B3000A121887E4F075084075091DF50A78088F
:1048C3001214F612491F122086740312150D85184F
:1048D30082851983E06009EE240E125A524408F0CF
:1048E30012365EE9F9E4F508F50978081214FA744A
:1048F300041215D2EEFAEFFB123676740212150D7E
:10490300E97006EEFAEFFB800BEEFAEFFB1220AA3A
:104913007A007B00740B12150D0243847C0B7D001F
:10492300EE2418FAE43FFB221259C0E4F0A322E07C
:1049330085088285098312493D22F0126B72227425
:10494300F3120E558A0A8B0BA2AFE433F50CC2AFF8
:10495300750800750900901D4B802C124B80502464
:10496300850A82850B83A3A3127D3A8E828F83A34C
:10497300A31266D6123664E9600A1249A6C2E6F0AB
:104983008E088F09124B75124E2E70CFE50845091C
:104993006006124A60D2E6F0E50CA2E092AF7F0512
:1049A30002120A1249AA22126B8BE02274F0120E31
:1049B30055EAFEEBFF8C0C8D0D750E00A2AFE433B0
:1049C300F50FC2AF750800750900901D4B80208557
:1049D3000A08850B09124A60D2E4F0E508124A5925
:1049E300D2E7F0E50A24FBF582E50B34FFF583E01B
:1049F300F50AA3E0F50BE50A450B6043E50A1257F8
:104A0300E1350BF583E0A2E750D9850A82850B8354
:104A1300A3A3121311AC0CAD0DEEFAEFFB12366A21
:104A2300740212150DE960BBE508450960A1E508AC
:104A3300240D124A6C64017006124A75D2E4F0E543
:104A43000FA2E092AFE50845096006123556750ED0
:104A530001A90E02478D12580B124A6F22124A64A3
:104A630022E5082411124A6C22F582E43509F58304
:104A7300E0228508828509831272D4E02274F2123F
:104A83000E5574FE1215F0750C00750D0085188215
:104A9300851983E4F0A3F0A2AF33F50AC2AF901DEA
:104AA3004BE0FEA3E0FF8035EE24FBF582EF34FFFD
:104AB30012790B780C1214FAEEFCEFFD7A4B7B1D86
:104AC3001220DA740212150DEEFCEFFDAA18AB19D1
:104AD3001220C8AE08AF09901D51E014F0EE4F60EC
:104AE30027124B80501DEE240BF8E43FF98882898E
:104AF30083E024FFF0A3E034FFF08882898312640B
:104B03006960A5124B718099E50AA2E092AF901DEE
:104B130051E0603190051CE0640F6006901DD2E007
:104B230070237A297B1D12374E9084B812130D7AA5
:104B3300297B1D123742740412150D800874F0127C
:104B43005DBC12354AAA18AB191220CE8A0A8B0B08
:104B5300AE0AAF0BEE4F601312347E1249A6A2E2E7
:104B63008E828F83A350D674E980D4024E368E0C86
:104B73008F0DEE24FBF582EF34FFF583221249AA51
:104B8300A2E72274F7120E55EAFEEBFF12347E12EF
:104B930059CA12108AE96401900538700AE02401A9
:104BA300F8A3E034008004E0F8A3E0F912601812DF
:104BB30063C1901D51E0702190051CE0640F7019D2
:104BC3007A297B1D12374E9084B812130D7A297BF4
:104BD3001D123742740412150DA9A8C2AF901D51BE
:104BE300E004124BECA2E7800DF0E9A2E7E433F80E
:104BF300E922E508A2E092AF025E5874F7120E555F
:104C0300EAFEEBFF124C33F012347EEEFCEFFD7A3A
:104C13004B7B1D1220D4A9A8C2AF901D5112436C27
:104C230090051CE0640F70057908123616025E5871
:104C33001249AAC2E42274F7120E5574EA1215F04F
:104C4300EAFEEBFF900515E0604085188285198325
:104C53007401F0121887E4124D0B121887AA82AB65
:104C6300831223448E828F83124A7BC0E0740A121C
:104C73001887D0E0126F0B740B121887AA82AB83CC
:104C830012368EAA18AB19122ADC7416024DA474BC
:104C9300F7120E55EAFEEBFF123460E9F974DC6992
:104CA300601E74DD69601974E469601474F36960EB
:104CB3000F74DE69600A74DF69600574DB6970076D
:104CC300EEFAEFFB12361C025E5874F7120E55749F
:104CD300EB1215F0EAFEEBFF851882851983740643
:104CE300124D0B121887AA82AB83122344126F1042
:104CF300740A121887AA82AB8312368EAA18AB19CC
:104D0300122ADC7415024DA4F0EE2413FCE43FFDDB
:104D130074022274F7120E5574F71215F0EAFEEBC3
:104D2300FFEE242D125A5260651255E3AA18AB19EF
:104D330012234474081218877403F0900531121378
:104D430011124D94121311900544E0F974041215D5
:104D5300D2EEFAEFFB123466740412150DE9F974FE
:104D6300DC69602374DD69601E74E469601974F39F
:104D730069601474DE69600F74DF69600A74E8693E
:104D8300600574DB697007EEFAEFFB12361C024410
:104D9300FBEE124D9922242BF582E43FF583227416
:104DA3000312150D025E5874F2120E558A088B0910
:104DB300750C00750D00750AE7A2AFE433F50BC25D
:104DC300AF901D4B8003124B71124E2E6035124B68
:104DD3008050F3125A4F640170ECEE242FF582E4F5
:104DE3003F124FDDE06870DE780C1214FAEEFCEF30
:104DF300FD7A4B7B1D1220DA740212150D901D51A2
:104E0300E014F0E50BA2E092AFEE4F6013EEFAEF81
:104E1300FB12347E79F0EEFAEFFB12361C750A00B2
:104E2300A90AAA08AB0912361C800DE0FEA3E0FF15
:104E3300EE4F22740212150D7F0602120A74F41249
:104E43000E5574F71215F0EAFEEBFF8E828F83A3E3
:104E5300E064F37003024EEA8E828F83A3E064DF83
:104E63007003024EEA8E828F83A3E064E860788E3B
:104E7300828F83A3E064DB606E1234C0E9F50870AF
:104E83005EEE240E125A526056124EF4123508EAA0
:104E93004B604C7408121887124EFE1213117508DA
:104EA300FF7509FF78081214FA8E828F83A3A3A3D8
:104EB300A3A3A3A3A3E0F974041215D21234667456
:104EC3000412150DE9F50874F36508601274DF65C3
:104ED30008600C74E86508600674DB6508700F8E63
:104EE300828F83A3E508F0EEFAEFFB1234CC024382
:104EF3009EEE240FFAE43FFB79092274021276D363
:104F030074FFF0A3124F0B22124F0F221261CEA394
:104F1300A32274F5120E558A088B097E008A828BB0
:104F230083A3A3A3A3A3A31243A840027EE88A8278
:104F33008B83A3A3A3A3A3A3A3A3A3A3E0C39410BB
:104F430040047EE880138A828B83A3A3A3A3A3A335
:104F5300A3A3A3A3E0640F600A901DAFE0540870FD
:104F6300027EE8EA240BF582E43509124FDDA3A3A0
:104F7300A3A3A3A3A3A3E0C398500CEA240B124A50
:104F83006C640F60027EE8900535E0F47003A3E0E3
:104F9300F470027EEC7A237B00122140901D3212C2
:104FA30066E6901D3212646960298508828509834B
:104FB300A3A3A982AA8389088A09750A007808121B
:104FC30014F67C237D001266D31220867403121517
:104FD3000D80027E1AEEF9027874F583E0F88A8276
:104FE3008B83A3A32274F5120E55EAFEEBFF8E8288
:104FF3008F83A3A3A3A3A3A3A3A3E090051C12756C
:10500300B690053712759C9005171275BB901DD38A
:10501300F0F9121B2E901DD3E06018EE2404FAE47D
:105023003FFB7950121B16EE2406FAE43FFB79E1AD
:10503300121B16901DD212439460047401800274F3
:1050430000901D341275A21214F67C0B7D007A3584
:105053007B1D122086740312150DEE2418F508E447
:105063003FF50978081214F67C0B7D007A407B1D0E
:1050730002786C74F7120E55EAFEEBFF8E828F8373
:10508300A3E070061266D31234C68E828F83742C0B
:10509300125DBC123628025E5874F7120E55EAFEF2
:1050A300EBFF901D32126469600D1266D3901D32BE
:1050B300E4F0A3F01221468E828F837408125DBC44
:1050C300122ADC025E5874F6120E55901DD2E0606F
:1050D30013901D34E0700D1250EA123478EA4B60DD
:1050E3000312355C027216900517E0FB900537E05A
:1050F300FA90051CE0F92274F4120E5574E71215A8
:10510300F0EAFEEBFF750B018E828F83A3A3A3A3AB
:10511300A3A3A3E0A2E25068EE242BF582E43F129E
:105123007D381251B8123484E970559083D1E0640C
:10513300017005750B0080481251C01214F67C0BE8
:105143007D0074111215CA122086740312150D12F4
:10515300365EE9FA740E1215C288088909780812B6
:1051630014FA75083075090078081214FA124D9470
:10517300121311126EAC790112367C740612150DDE
:105183008518828519837410124D0B121887AA8211
:10519300AB83122338124D94126ED8740B121887F6
:1051A3001263C1740D121887E50B125C2F122ADCEF
:1051B30074190243A0EE2413FAE43FFB22EE240801
:1051C3001275AA22C082C083901DD3E060031236F9
:1051D300D0025B9EC082C083901DCA7411F0A37479
:1051E3001DF0A37415F0A3741DF0A37421F0A37430
:1051F3001DF0901EDE7457F0A37440F0901DB4743C
:105203005AF0A37434F0901D567490F0A37434F0E4
:10521300901D587496F0A37434F0901DAFE04402CF
:105223008001E4F0025B9EC082C083EAFCEBFD795F
:105233000302623AC082C083EAFCEBFD7905026295
:105243003AC082C08379080273A7C082C08374FE08
:105253001215F0901D5E7444F0A37435F0901D6038
:10526300743EF0A37435F0800D7A4B7B1D1220CE73
:10527300125C2512364C901D4B12646970EB901D25
:105283004D126469600F7A4D7B1D1220CE125C258E
:1052930012364C80E9901D4BE4F0A3F0901D51129F
:1052A300437774028002741112150D025B9E74F62B
:1052B300120E55E9FF741529F582E43443F583E4AE
:1052C30093FEFA7B001220A4EA4B6011EA2E1263CC
:1052D300B78A828B83A3A3A3A3E4F0802C7A027BF7
:1052E300001220A4EA4B601D74FF2FF582E43442C0
:1052F300F583E4938A828B83F0A3741AF0901DAA3A
:10530300E0F91220B07A007B00027216E9FC740601
:1053130029F8EAA2E0501EE875F00A84E5F0F96086
:1053230014740A28C399F8E9C394054004740A283D
:10533300F8740B28F8ECC3941340047A1480027AAF
:1053430006EA2879002409F85001097A0A7B001239
:105353000AD6E8F90214DAC082C083901DAFE05484
:1053630002600A122AE2E9600479018002790002EC
:105373005B9EC082C083901DAFE054026016901DF7
:1053830051E0700C126466600BE0C81259035004BC
:10539300790180027900025B9EC082C0839083CE34
:1053A300E0F8901D53E0C39850051220A480047ABE
:1053B300007B00025B9EC082C08312364C790002E0
:1053C3005B9E74F7120E5574FE1215F085188285D4
:1053D3001983EAF0A3EB125534A3A3A3A3A3E060BC
:1053E3000A14606024FE60690254B590051CE064F1
:1053F3000F6018123622E9701285188285198312FC
:1054030066D6901D5A1259CD12108A900544E0C0F9
:10541300E0851882851983126198D0E0125534749F
:10542300141276CF127D3A7A4D7B1D1220C8A8A89C
:10543300C2AF901D53E0041266EC79201236167445
:1054430002024DA48518828519831272DC741580BB
:10545300D0851882851983125517A3A3E06053855D
:105463001882851983E02402F8A3E03400F98882C6
:105473008983127B0DE0C0E0851882851983E0FCE7
:10548300A3E0CC2406F582E43CF583D0E0126F1848
:10549300888289831266E68518828519831257FFED
:1054A300851882851983601312551C6005125524D3
:1054B3004043AA18AB1912364C808412551C60F273
:1054C300125524501C125913FA8518828519831218
:1054D300551EF874351263B23443F583E4936A605E
:1054E3001485188285198312551C640870C41259D7
:1054F30013640870BD1259131412553C240AC0E0FA
:105503008518828519831259CDD0E012553C0402C7
:105513005424E0F8A31261E522E0F8A3E012554316
:1055230022851882851983126EE9125544C3940AA1
:105533002212554EF58388822212554E125543226C
:10554300C82406F582E438F583E0221276D3E0F826
:10555300A3E022C082C083901D62126469600812B6
:1055630072DD12108A80027900025B9E74F7120EBC
:1055730055EAFEEBFF12453A7401F0EE2430F58252
:10558300E43FF583126C461245142432125A52C07A
:10559300E0EE2413F582E43FF583D0E0F0EE24330C
:1055A300125A52C0E0EE2414F582E43FF583D0E0B2
:1055B300F0EE242CF582E43FF5831213111255E328
:1055C300EE242E125A52F9123676740212150DE990
:1055D300F5087007EEFAEFFB12355CA908025E5876
:1055E300EE2423FCE43FFD22C082C083123622E96D
:1055F3006004792080027901025B9EC082C083EA45
:105603001257E11256A2D2E0025226C082C0831280
:10561300569C640170111256A7400C8A828B83A397
:10562300E0F912361C806FEA241012569FA2E6504E
:10563300128A828B83A3E0F9901D5C1259CD12105C
:105643008A805312569C6401700D1256A750088A23
:10565300828B83743080368A828B83A3E0641B8AB7
:10566300828B83700474228024A3E0700D12569CF5
:10567300F8740A1263B23443800B12569CF874FF19
:105683001263B23442F583E4938A828B83F0901DD4
:10569300AAE0F91220B0025B9EEA240DF582E43BF6
:1056A300F583E022EA12580B3BF583E0A2E3227470
:1056B300F7120E55E9FE12646670030257D8EE60C6
:1056C30011741B6E7013E0C81257DB64057003027C
:1056D30057A31272CCE40257A774E96E7062125793
:1056E300F7700B122AE8E96005125811606279EE2F
:1056F300121A98901D541257F4901D54603B12587F
:1057030014901D54700B1257F414F0121C4E0257D0
:10571300D81257FFC2E712591F1257DB6403700CEC
:10572300126EE21257E1125549D2E2F079ED121AE4
:10573300981257E712108A80751272CF74E9806449
:1057430074E16E703E122AE8E960551258117050E8
:1057530090053EE0C0E0126EE22412F582E438F5D3
:1057630083D0E0F090052DE0C0E0901D5412551554
:10577300125515D0E0F090052DE004F07901121CCC
:10578300368052741C6E7018901D541266D6901D8C
:10579300641259CD12108A901D54E4F0A3F08035A1
:1057A3001272CCEEF0901D541266D612354A126E68
:1057B300E2126EB4E054806010900544E0F9121BCD
:1057C30052900543E0F9121B46901D54E4F0A3F0F8
:1057D3007910123616025E58240D125546222411F2
:1057E300F582E422901D541266DA901D581272D687
:1057F30022E0F8A3E0C8241212554622E0F8A3E001
:10580300C812580B125549222410F582E422901D28
:1058130054126EE9126EB8E054042274F4120E5559
:10582300750A00750B00A2AFE433FFC2AF126466C2
:1058330060030258DB1259CA12108AE94410F89027
:105843001D4B800985080A85090B1258F612590B5E
:1058530070030258DB124A60586870E8780A121421
:10586300FAAC08AD097A4B7B1D1220DA74021215CB
:105873000D901D54E508F0A3E50912591F125903B1
:10588300405D901D52E014F0EFA2E092AF901D54E2
:10589300E0240EF8A3E03400F9880889098882F52A
:1058A300831266D6901D54125919F912350EE990D8
:1058B3001D4FF0125927E05480901D546026126E3C
:1058C300E52413125546F9121B52126EE2241412E8
:1058D3005546F9121B468018EFA2E092AF80119053
:1058E3001D5180A11257FFA2E1B3E433F9121C3614
:1058F3000243A3E50824FBF582E50934FFF583227F
:105903002411125546A2E722127911E5084509220E
:10591300851882851983124762A3E022F0901D54F3
:10592300126EE922A3E4F08508828509832274F7C5
:10593300120E55EAFEEBFF123646EE2410125A52AF
:10594300A2E3400C125A4F640170059083CC80038C
:105953009083CDE0F9EEFCEFFD7A4B7B1D1220E046
:10596300E96046EEFAEFFB901D5E1259CD12108AE4
:10597300EE240E125A5254047020A8A8C2AF901DF0
:1059830052E0041266CCFAE8A2E792AF1259BCA324
:10599300E054017021123556801CEEFAEFFB901D86
:1059A300561259CD12108A800D8E828F83A374F103
:1059B300125DBC12354A025E581259C022EE240E03
:1059C300F582E43FF58322901D601272D622C082D5
:1059D300C083123556025B9E74F7120E55EAFEEB36
:1059E300FF7900901DAFE05402700CEE2430125A80
:1059F300525404600279E8901DAFE05460700CEEDD
:105A03002430125A525402600279E88E828F83A3A3
:105A1300A3A3A3E0F89083D2E0C398500279E8EE01
:105A2300242E125A52700CEE242B125A52700479FF
:105A3300F5800BE97005123538E9F9E96007EEFAEC
:105A4300EFFB12361C025E5834FFF509EE240DF508
:105A530082E43FF583E022C082C0838A828B837411
:105A63000DF0122ADC025B9EC082C0838A828B8384
:105A7300E4F0A3F0EA243012569F54049083CC70D0
:105A830012E0F8901D52E0C398401279F112361CCF
:105A9300025B9EE0F8901D51E0C39850EE901DAA62
:105AA300E0F91220B080E974F6120E55E9FE244C99
:105AB300FAE43400FB1220A4EA4B6012EE8A828BD4
:105AC30083A3A3A3A3F0EA244C1263B780047A0050
:105AD3007B00027216C082C083901D6674A4F0A37B
:105AE3007435F0A374D4F0A37435F0A374AAF0A3AF
:105AF3007435F0A374B0F0A37435F0A374CEF0A39F
:105B03007435F0A374C2F0A37435F0A374BCF0A38E
